{
  "address": "0xFcBfF8cAA7247b43BAB815983d6274F959C0a4cD",
  "abi": [
    {
      "inputs": [
        {
          "internalType": "uint256",
          "name": "_deadlinePeriod",
          "type": "uint256"
        },
        {
          "internalType": "uint256",
          "name": "_passAmountNeeded",
          "type": "uint256"
        },
        {
          "internalType": "string",
          "name": "_uri",
          "type": "string"
        }
      ],
      "stateMutability": "nonpayable",
      "type": "constructor"
    },
    {
      "inputs": [],
      "name": "OnlySimulatedBackend",
      "type": "error"
    },
    {
      "anonymous": false,
      "inputs": [
        {
          "indexed": true,
          "internalType": "address",
          "name": "owner",
          "type": "address"
        },
        {
          "indexed": false,
          "internalType": "uint256",
          "name": "id",
          "type": "uint256"
        }
      ],
      "name": "ApplicationCompleted",
      "type": "event"
    },
    {
      "anonymous": false,
      "inputs": [
        {
          "indexed": true,
          "internalType": "address",
          "name": "owner",
          "type": "address"
        },
        {
          "indexed": false,
          "internalType": "string",
          "name": "company",
          "type": "string"
        },
        {
          "indexed": false,
          "internalType": "uint256",
          "name": "id",
          "type": "uint256"
        },
        {
          "indexed": false,
          "internalType": "string",
          "name": "cid",
          "type": "string"
        }
      ],
      "name": "ApplicationCreated",
      "type": "event"
    },
    {
      "anonymous": false,
      "inputs": [
        {
          "indexed": true,
          "internalType": "address",
          "name": "owner",
          "type": "address"
        },
        {
          "indexed": false,
          "internalType": "uint256",
          "name": "id",
          "type": "uint256"
        }
      ],
      "name": "ApplicationRejected",
      "type": "event"
    },
    {
      "anonymous": false,
      "inputs": [
        {
          "indexed": true,
          "internalType": "address",
          "name": "account",
          "type": "address"
        },
        {
          "indexed": true,
          "internalType": "address",
          "name": "operator",
          "type": "address"
        },
        {
          "indexed": false,
          "internalType": "bool",
          "name": "approved",
          "type": "bool"
        }
      ],
      "name": "ApprovalForAll",
      "type": "event"
    },
    {
      "anonymous": false,
      "inputs": [
        {
          "indexed": true,
          "internalType": "address",
          "name": "previousOwner",
          "type": "address"
        },
        {
          "indexed": true,
          "internalType": "address",
          "name": "newOwner",
          "type": "address"
        }
      ],
      "name": "OwnershipTransferred",
      "type": "event"
    },
    {
      "anonymous": false,
      "inputs": [
        {
          "indexed": false,
          "internalType": "address",
          "name": "account",
          "type": "address"
        }
      ],
      "name": "Paused",
      "type": "event"
    },
    {
      "anonymous": false,
      "inputs": [
        {
          "indexed": true,
          "internalType": "address",
          "name": "operator",
          "type": "address"
        },
        {
          "indexed": true,
          "internalType": "address",
          "name": "from",
          "type": "address"
        },
        {
          "indexed": true,
          "internalType": "address",
          "name": "to",
          "type": "address"
        },
        {
          "indexed": false,
          "internalType": "uint256[]",
          "name": "ids",
          "type": "uint256[]"
        },
        {
          "indexed": false,
          "internalType": "uint256[]",
          "name": "values",
          "type": "uint256[]"
        }
      ],
      "name": "TransferBatch",
      "type": "event"
    },
    {
      "anonymous": false,
      "inputs": [
        {
          "indexed": true,
          "internalType": "address",
          "name": "operator",
          "type": "address"
        },
        {
          "indexed": true,
          "internalType": "address",
          "name": "from",
          "type": "address"
        },
        {
          "indexed": true,
          "internalType": "address",
          "name": "to",
          "type": "address"
        },
        {
          "indexed": false,
          "internalType": "uint256",
          "name": "id",
          "type": "uint256"
        },
        {
          "indexed": false,
          "internalType": "uint256",
          "name": "value",
          "type": "uint256"
        }
      ],
      "name": "TransferSingle",
      "type": "event"
    },
    {
      "anonymous": false,
      "inputs": [
        {
          "indexed": false,
          "internalType": "string",
          "name": "value",
          "type": "string"
        },
        {
          "indexed": true,
          "internalType": "uint256",
          "name": "id",
          "type": "uint256"
        }
      ],
      "name": "URI",
      "type": "event"
    },
    {
      "anonymous": false,
      "inputs": [
        {
          "indexed": false,
          "internalType": "address",
          "name": "account",
          "type": "address"
        }
      ],
      "name": "Unpaused",
      "type": "event"
    },
    {
      "anonymous": false,
      "inputs": [
        {
          "indexed": true,
          "internalType": "address",
          "name": "owner",
          "type": "address"
        },
        {
          "indexed": false,
          "internalType": "uint256",
          "name": "id",
          "type": "uint256"
        },
        {
          "indexed": false,
          "internalType": "enum Gangabon.Vote",
          "name": "vote",
          "type": "uint8"
        }
      ],
      "name": "Voted",
      "type": "event"
    },
    {
      "inputs": [
        {
          "internalType": "address",
          "name": "",
          "type": "address"
        },
        {
          "internalType": "uint256",
          "name": "",
          "type": "uint256"
        }
      ],
      "name": "addressVoted",
      "outputs": [
        {
          "internalType": "bool",
          "name": "",
          "type": "bool"
        }
      ],
      "stateMutability": "view",
      "type": "function"
    },
    {
      "inputs": [],
      "name": "applicationId",
      "outputs": [
        {
          "internalType": "uint256",
          "name": "",
          "type": "uint256"
        }
      ],
      "stateMutability": "view",
      "type": "function"
    },
    {
      "inputs": [],
      "name": "applicationIdMinting",
      "outputs": [
        {
          "internalType": "uint256",
          "name": "",
          "type": "uint256"
        }
      ],
      "stateMutability": "view",
      "type": "function"
    },
    {
      "inputs": [
        {
          "internalType": "uint256",
          "name": "",
          "type": "uint256"
        }
      ],
      "name": "applications",
      "outputs": [
        {
          "internalType": "uint256",
          "name": "id",
          "type": "uint256"
        },
        {
          "internalType": "address",
          "name": "owner",
          "type": "address"
        },
        {
          "internalType": "string",
          "name": "cid",
          "type": "string"
        },
        {
          "internalType": "string",
          "name": "company",
          "type": "string"
        },
        {
          "internalType": "uint256",
          "name": "deadline",
          "type": "uint256"
        },
        {
          "internalType": "uint256",
          "name": "totalVote",
          "type": "uint256"
        },
        {
          "internalType": "uint256",
          "name": "yay",
          "type": "uint256"
        },
        {
          "internalType": "uint256",
          "name": "nay",
          "type": "uint256"
        },
        {
          "internalType": "enum Gangabon.State",
          "name": "status",
          "type": "uint8"
        }
      ],
      "stateMutability": "view",
      "type": "function"
    },
    {
      "inputs": [
        {
          "internalType": "address",
          "name": "account",
          "type": "address"
        },
        {
          "internalType": "uint256",
          "name": "id",
          "type": "uint256"
        }
      ],
      "name": "balanceOf",
      "outputs": [
        {
          "internalType": "uint256",
          "name": "",
          "type": "uint256"
        }
      ],
      "stateMutability": "view",
      "type": "function"
    },
    {
      "inputs": [
        {
          "internalType": "address[]",
          "name": "accounts",
          "type": "address[]"
        },
        {
          "internalType": "uint256[]",
          "name": "ids",
          "type": "uint256[]"
        }
      ],
      "name": "balanceOfBatch",
      "outputs": [
        {
          "internalType": "uint256[]",
          "name": "",
          "type": "uint256[]"
        }
      ],
      "stateMutability": "view",
      "type": "function"
    },
    {
      "inputs": [
        {
          "internalType": "bytes",
          "name": "",
          "type": "bytes"
        }
      ],
      "name": "checkUpkeep",
      "outputs": [
        {
          "internalType": "bool",
          "name": "upkeepNeeded",
          "type": "bool"
        },
        {
          "internalType": "bytes",
          "name": "",
          "type": "bytes"
        }
      ],
      "stateMutability": "view",
      "type": "function"
    },
    {
      "inputs": [
        {
          "internalType": "string",
          "name": "_cid",
          "type": "string"
        },
        {
          "internalType": "string",
          "name": "_companyName",
          "type": "string"
        },
        {
          "internalType": "uint256",
          "name": "_voteRequired",
          "type": "uint256"
        }
      ],
      "name": "createApplication",
      "outputs": [],
      "stateMutability": "nonpayable",
      "type": "function"
    },
    {
      "inputs": [],
      "name": "deadlinePeriod",
      "outputs": [
        {
          "internalType": "uint256",
          "name": "",
          "type": "uint256"
        }
      ],
      "stateMutability": "view",
      "type": "function"
    },
    {
      "inputs": [
        {
          "internalType": "address",
          "name": "account",
          "type": "address"
        },
        {
          "internalType": "address",
          "name": "operator",
          "type": "address"
        }
      ],
      "name": "isApprovedForAll",
      "outputs": [
        {
          "internalType": "bool",
          "name": "",
          "type": "bool"
        }
      ],
      "stateMutability": "view",
      "type": "function"
    },
    {
      "inputs": [],
      "name": "isMintReady",
      "outputs": [
        {
          "internalType": "bool",
          "name": "",
          "type": "bool"
        }
      ],
      "stateMutability": "view",
      "type": "function"
    },
    {
      "inputs": [],
      "name": "owner",
      "outputs": [
        {
          "internalType": "address",
          "name": "",
          "type": "address"
        }
      ],
      "stateMutability": "view",
      "type": "function"
    },
    {
      "inputs": [],
      "name": "passAmountNeeded",
      "outputs": [
        {
          "internalType": "uint256",
          "name": "",
          "type": "uint256"
        }
      ],
      "stateMutability": "view",
      "type": "function"
    },
    {
      "inputs": [],
      "name": "pause",
      "outputs": [],
      "stateMutability": "nonpayable",
      "type": "function"
    },
    {
      "inputs": [],
      "name": "paused",
      "outputs": [
        {
          "internalType": "bool",
          "name": "",
          "type": "bool"
        }
      ],
      "stateMutability": "view",
      "type": "function"
    },
    {
      "inputs": [
        {
          "internalType": "bytes",
          "name": "",
          "type": "bytes"
        }
      ],
      "name": "performUpkeep",
      "outputs": [],
      "stateMutability": "nonpayable",
      "type": "function"
    },
    {
      "inputs": [],
      "name": "renounceOwnership",
      "outputs": [],
      "stateMutability": "nonpayable",
      "type": "function"
    },
    {
      "inputs": [
        {
          "internalType": "address",
          "name": "from",
          "type": "address"
        },
        {
          "internalType": "address",
          "name": "to",
          "type": "address"
        },
        {
          "internalType": "uint256[]",
          "name": "ids",
          "type": "uint256[]"
        },
        {
          "internalType": "uint256[]",
          "name": "amounts",
          "type": "uint256[]"
        },
        {
          "internalType": "bytes",
          "name": "data",
          "type": "bytes"
        }
      ],
      "name": "safeBatchTransferFrom",
      "outputs": [],
      "stateMutability": "nonpayable",
      "type": "function"
    },
    {
      "inputs": [
        {
          "internalType": "address",
          "name": "from",
          "type": "address"
        },
        {
          "internalType": "address",
          "name": "to",
          "type": "address"
        },
        {
          "internalType": "uint256",
          "name": "id",
          "type": "uint256"
        },
        {
          "internalType": "uint256",
          "name": "amount",
          "type": "uint256"
        },
        {
          "internalType": "bytes",
          "name": "data",
          "type": "bytes"
        }
      ],
      "name": "safeTransferFrom",
      "outputs": [],
      "stateMutability": "nonpayable",
      "type": "function"
    },
    {
      "inputs": [
        {
          "internalType": "address",
          "name": "operator",
          "type": "address"
        },
        {
          "internalType": "bool",
          "name": "approved",
          "type": "bool"
        }
      ],
      "name": "setApprovalForAll",
      "outputs": [],
      "stateMutability": "nonpayable",
      "type": "function"
    },
    {
      "inputs": [
        {
          "internalType": "uint256",
          "name": "_deadlinePeriod",
          "type": "uint256"
        }
      ],
      "name": "setDeadlinePeriod",
      "outputs": [],
      "stateMutability": "nonpayable",
      "type": "function"
    },
    {
      "inputs": [
        {
          "internalType": "uint256",
          "name": "_passAmountNeeded",
          "type": "uint256"
        }
      ],
      "name": "setPassAmountNeeded",
      "outputs": [],
      "stateMutability": "nonpayable",
      "type": "function"
    },
    {
      "inputs": [
        {
          "internalType": "bytes4",
          "name": "interfaceId",
          "type": "bytes4"
        }
      ],
      "name": "supportsInterface",
      "outputs": [
        {
          "internalType": "bool",
          "name": "",
          "type": "bool"
        }
      ],
      "stateMutability": "view",
      "type": "function"
    },
    {
      "inputs": [],
      "name": "tokenId",
      "outputs": [
        {
          "internalType": "uint256",
          "name": "",
          "type": "uint256"
        }
      ],
      "stateMutability": "view",
      "type": "function"
    },
    {
      "inputs": [
        {
          "internalType": "uint256",
          "name": "",
          "type": "uint256"
        }
      ],
      "name": "tokenIdToCid",
      "outputs": [
        {
          "internalType": "string",
          "name": "",
          "type": "string"
        }
      ],
      "stateMutability": "view",
      "type": "function"
    },
    {
      "inputs": [
        {
          "internalType": "address",
          "name": "newOwner",
          "type": "address"
        }
      ],
      "name": "transferOwnership",
      "outputs": [],
      "stateMutability": "nonpayable",
      "type": "function"
    },
    {
      "inputs": [],
      "name": "unpause",
      "outputs": [],
      "stateMutability": "nonpayable",
      "type": "function"
    },
    {
      "inputs": [
        {
          "internalType": "uint256",
          "name": "",
          "type": "uint256"
        }
      ],
      "name": "uri",
      "outputs": [
        {
          "internalType": "string",
          "name": "",
          "type": "string"
        }
      ],
      "stateMutability": "view",
      "type": "function"
    },
    {
      "inputs": [
        {
          "internalType": "uint256",
          "name": "_applicationId",
          "type": "uint256"
        },
        {
          "internalType": "enum Gangabon.Vote",
          "name": "_vote",
          "type": "uint8"
        }
      ],
      "name": "vote",
      "outputs": [],
      "stateMutability": "nonpayable",
      "type": "function"
    }
  ],
  "transactionHash": "0xd63fc3d07a2f25628d6fa8c1146c287489f958945d05f08a5fa59a474f3e1ae9",
  "args": [
    10000,
    2,
    ""
  ],
  "numDeployments": 1,
  "solcInputHash": "9f28a94cafce9f1118eb2e54ccd34069",
  "bytecode": "0x60806040523480156200001157600080fd5b5060405162002e2938038062002e29833981016040819052620000349162000224565b8062000040816200007f565b5060016003556004805460ff191690556200005b3362000091565b506006919091556007556000600a819055600b805460ff19169055600d556200045c565b60026200008d82826200038c565b5050565b600480546001600160a01b03838116610100818102610100600160a81b031985161790945560405193909204169182907f8be0079c531659141344cd1fd0a4f28419497f9722a3daafe3b4186f6b6457e090600090a35050565b80515b92915050565b634e487b7160e01b600052604160045260246000fd5b601f19601f83011681018181106001600160401b0382111715620001325762000132620000f4565b6040525050565b60006200014560405190565b90506200015382826200010a565b919050565b60006001600160401b03821115620001745762000174620000f4565b601f19601f83011660200192915050565b60005b83811015620001a257818101518382015260200162000188565b50506000910152565b6000620001c2620001bc8462000158565b62000139565b905082815260208101848484011115620001df57620001df600080fd5b620001ec84828562000185565b509392505050565b600082601f8301126200020a576200020a600080fd5b81516200021c848260208601620001ab565b949350505050565b6000806000606084860312156200023e576200023e600080fd5b60006200024c8686620000eb565b93505060206200025f86828701620000eb565b92505060408401516001600160401b03811115620002805762000280600080fd5b6200028e86828701620001f4565b9150509250925092565b634e487b7160e01b600052602260045260246000fd5b600281046001821680620002c357607f821691505b602082108103620002d857620002d862000298565b50919050565b6000620000ee620002ec8381565b90565b620002fa83620002de565b815460001960089490940293841b1916921b91909117905550565b600062000324818484620002ef565b505050565b818110156200008d576200033f60008262000315565b60010162000329565b601f82111562000324576000818152602090206020601f85010481016020851015620003715750805b620003856020601f86010483018262000329565b5050505050565b81516001600160401b03811115620003a857620003a8620000f4565b620003b48254620002ae565b620003c182828562000348565b6020601f831160018114620003f85760008415620003df5750858201515b600019600886021c198116600286021786555062000454565b600085815260208120601f198616915b828110156200042a578885015182556020948501946001909201910162000408565b86831015620004475784890151600019601f89166008021c191682555b6001600288020188555050505b505050505050565b6129bd806200046c6000396000f3fe608060405234801561001057600080fd5b50600436106101ce5760003560e01c80636e04ff0d11610104578063943e8216116100a2578063e985e9c511610071578063e985e9c5146103de578063f242432a1461041a578063f2fde38b1461042d578063f979b8761461044057600080fd5b8063943e821614610362578063a22cb46514610375578063a70dedc814610388578063dfefadff146103b657600080fd5b806382651c0d116100de57806382651c0d146103205780638456cb59146103335780638ad104191461033b5780638da5cb5b1461034457600080fd5b80636e04ff0d146102e55780636f9ae06e1461030f578063715018a61461031857600080fd5b8063341a3c02116101715780634b2ee8a41161014b5780634b2ee8a4146102a45780634e1273f4146102b15780635c975abb146102d15780636db24262146102dc57600080fd5b8063341a3c02146102765780633f4ba83a146102895780634585e33b1461029157600080fd5b806317d70f7c116101ad57806317d70f7c1461023c5780631934bc14146102455780632eb2c2d61461024e578063327bf5141461026357600080fd5b8062fdd58e146101d357806301ffc9a7146101fc5780630e89341c1461021c575b600080fd5b6101e66101e136600461169e565b610453565b6040516101f391906116e3565b60405180910390f35b61020f61020a36600461170c565b6104ad565b6040516101f3919061173d565b61022f61022a36600461174b565b6104fd565b6040516101f391906117c2565b6101e6600d5481565b6101e660075481565b61026161025c36600461196d565b610591565b005b61026161027136600461174b565b6105dd565b61022f61028436600461174b565b6105ea565b610261610684565b61026161029f366004611a84565b610696565b600b5461020f9060ff1681565b6102c46102bf366004611b40565b61072a565b6040516101f39190611c03565b60045460ff1661020f565b6101e660065481565b6103016102f3366004611a84565b5050600b5460ff1690606090565b6040516101f3929190611c14565b6101e6600c5481565b610261610811565b61026161032e36600461174b565b610823565b610261610830565b6101e6600a5481565b60045461010090046001600160a01b03166040516101f39190611c3d565b610261610370366004611c63565b610840565b610261610383366004611ca9565b610ae5565b61020f61039636600461169e565b600560209081526000928352604080842090915290825290205460ff1681565b6103c96103c436600461174b565b610af0565b6040516101f399989796959493929190611d20565b61020f6103ec366004611db4565b6001600160a01b03918216600090815260016020908152604080832093909416825291909152205460ff1690565b610261610428366004611de7565b610c55565b61026161043b366004611e41565b610c9a565b61026161044e366004611e62565b610cd4565b60006001600160a01b0383166104845760405162461bcd60e51b815260040161047b90611f2f565b60405180910390fd5b506000818152602081815260408083206001600160a01b03861684529091529020545b92915050565b60006001600160e01b03198216636cdb3d1360e11b14806104de57506001600160e01b031982166303a24d0760e21b145b806104a757506301ffc9a760e01b6001600160e01b03198316146104a7565b60606002805461050c90611f55565b80601f016020809104026020016040519081016040528092919081815260200182805461053890611f55565b80156105855780601f1061055a57610100808354040283529160200191610585565b820191906000526020600020905b81548152906001019060200180831161056857829003601f168201915b50505050509050919050565b6001600160a01b0385163314806105ad57506105ad85336103ec565b6105c95760405162461bcd60e51b815260040161047b90611fcc565b6105d68585858585610e6c565b5050505050565b6105e5611008565b600755565b6009602052600090815260409020805461060390611f55565b80601f016020809104026020016040519081016040528092919081815260200182805461062f90611f55565b801561067c5780601f106106515761010080835404028352916020019161067c565b820191906000526020600020905b81548152906001019060200180831161065f57829003601f168201915b505050505081565b61068c611008565b610694611038565b565b600b5460ff161561072657600c5460009081526008602090815260408083206001810154600d548351948501909352938352926106e2926001600160a01b039091169190606490611084565b600b805460ff191690556000600c819055600d54815260096020526040902061070e600283018261207b565b50600d805490600061071f83612173565b9190505550505b5050565b6060815183511461074d5760405162461bcd60e51b815260040161047b906121d3565b600083516001600160401b03811115610768576107686117da565b604051908082528060200260200182016040528015610791578160200160208202803683370190505b50905060005b8451811015610809576107dc8582815181106107b5576107b56121e3565b60200260200101518583815181106107cf576107cf6121e3565b6020026020010151610453565b8282815181106107ee576107ee6121e3565b602090810291909101015261080281612173565b9050610797565b509392505050565b610819611008565b610694600061116c565b61082b611008565b600655565b610838611008565b6106946111c6565b610848611203565b61085061122c565b600a5482106108715760405162461bcd60e51b815260040161047b90612224565b33600090815260056020908152604080832085845290915290205460ff16156108ac5760405162461bcd60e51b815260040161047b90612257565b60008281526008602052604090206004015443106108dc5760405162461bcd60e51b815260040161047b9061228e565b60008281526008602081905260408220015460ff16600281111561090257610902611cdc565b1461091f5760405162461bcd60e51b815260040161047b906122dd565b3360008181526005602090815260408083208684528252808320805460ff1916600117905560089091529081902090519091907fcc66c27f993ef125e1b985d84a52726edc66dcc64e94d172f80253e37d52637290610981908690869061231b565b60405180910390a2600082600181111561099d5761099d611cdc565b03610a4b5760018160060160008282546109b79190612336565b9091555050600754600682015410610a4657600b805460ff1990811660019081179092558254600c556000858152600860208190526040918290200180549092166002179091559082015490516001600160a01b03909116907feee7310c3b2d62d1dff6b1880b8f6d0a80d484d593668a7cb993210e4b4ddaed90610a3d9086906116e3565b60405180910390a25b610ada565b6001816007016000828254610a609190612336565b9091555050600780549082015410610ada5760008381526008602081905260409182902001805460ff1916600190811790915582015490516001600160a01b03909116907f178c4297d9f988537685e87d1e02ec1c569bfdbefa46251af88ca3b560f6d12a90610ad19086906116e3565b60405180910390a25b506107266001600355565b61072633838361124f565b60086020526000908152604090208054600182015460028301805492936001600160a01b0390921692610b2290611f55565b80601f0160208091040260200160405190810160405280929190818152602001828054610b4e90611f55565b8015610b9b5780601f10610b7057610100808354040283529160200191610b9b565b820191906000526020600020905b815481529060010190602001808311610b7e57829003601f168201915b505050505090806003018054610bb090611f55565b80601f0160208091040260200160405190810160405280929190818152602001828054610bdc90611f55565b8015610c295780601f10610bfe57610100808354040283529160200191610c29565b820191906000526020600020905b815481529060010190602001808311610c0c57829003601f168201915b505050600484015460058501546006860154600787015460089097015495969295919450925060ff1689565b6001600160a01b038516331480610c715750610c7185336103ec565b610c8d5760405162461bcd60e51b815260040161047b90611fcc565b6105d685858585856112f1565b610ca2611008565b6001600160a01b038116610cc85760405162461bcd60e51b815260040161047b9061238c565b610cd18161116c565b50565b610cdc611203565b610ce461122c565b604051806101200160405280600a548152602001336001600160a01b0316815260200184815260200183815260200160065443610d219190612336565b8152602001828152602001600081526020016000815260200160006002811115610d4d57610d4d611cdc565b9052600a5460009081526008602090815260409182902083518155908301516001820180546001600160a01b0319166001600160a01b03909216919091179055908201516002820190610da0908261239c565b5060608201516003820190610db5908261239c565b506080820151600482015560a0820151600582015560c0820151600682015560e0820151600782015561010082015160088201805460ff19166001836002811115610e0257610e02611cdc565b021790555050600a805491506000610e1983612173565b9091555050600a5460405133917fea34fcc95d727b91b98cfc00445e7040f45187943e84e8b022ebc03026073da691610e559186918890612449565b60405180910390a2610e676001600355565b505050565b8151835114610e8d5760405162461bcd60e51b815260040161047b906124c9565b6001600160a01b038416610eb35760405162461bcd60e51b815260040161047b9061251b565b3360005b8451811015610f9a576000858281518110610ed457610ed46121e3565b602002602001015190506000858381518110610ef257610ef26121e3565b602090810291909101810151600084815280835260408082206001600160a01b038e168352909352919091205490915081811015610f425760405162461bcd60e51b815260040161047b90612572565b6000838152602081815260408083206001600160a01b038e8116855292528083208585039055908b16825281208054849290610f7f908490612336565b9250508190555050505080610f9390612173565b9050610eb7565b50846001600160a01b0316866001600160a01b0316826001600160a01b03167f4a39dc06d4c0dbc64b70af90fd698a233a518aa5d07e595d983b8c0526c8f7fb8787604051610fea929190612582565b60405180910390a4611000818787878787611427565b505050505050565b6004546001600160a01b036101009091041633146106945760405162461bcd60e51b815260040161047b906125d9565b611040611535565b6004805460ff191690557f5db9ee0a495bf2e6ff9c91a7834c1ba4fdd244a5e8aa4e537bd38aeae4b073aa335b60405161107a9190611c3d565b60405180910390a1565b6001600160a01b0384166110aa5760405162461bcd60e51b815260040161047b90612627565b3360006110b685611557565b905060006110c385611557565b90506000868152602081815260408083206001600160a01b038b168452909152812080548792906110f5908490612336565b92505081905550866001600160a01b031660006001600160a01b0316846001600160a01b03167fc3d58168c5ae7397731d063d5bbf3d657854427343f4c083240f7aacaa2d0f62898960405161114c929190612637565b60405180910390a4611163836000898989896115a2565b50505050505050565b600480546001600160a01b03838116610100818102610100600160a81b031985161790945560405193909204169182907f8be0079c531659141344cd1fd0a4f28419497f9722a3daafe3b4186f6b6457e090600090a35050565b6111ce61122c565b6004805460ff191660011790557f62e78cea01bee320cd4e420270b5ea74000d11b0c9f74754ebdbfc544b05a25861106d3390565b6002600354036112255760405162461bcd60e51b815260040161047b90612686565b6002600355565b60045460ff16156106945760405162461bcd60e51b815260040161047b906126bd565b816001600160a01b0316836001600160a01b0316036112805760405162461bcd60e51b815260040161047b90612713565b6001600160a01b0383811660008181526001602090815260408083209487168084529490915290819020805460ff1916851515179055517f17307eab39ab6107e8899845ad3d59bd9653f200f220920489ca2b5937696c31906112e490859061173d565b60405180910390a3505050565b6001600160a01b0384166113175760405162461bcd60e51b815260040161047b9061251b565b33600061132385611557565b9050600061133085611557565b90506000868152602081815260408083206001600160a01b038c168452909152902054858110156113735760405162461bcd60e51b815260040161047b90612572565b6000878152602081815260408083206001600160a01b038d8116855292528083208985039055908a168252812080548892906113b0908490612336565b92505081905550876001600160a01b0316896001600160a01b0316856001600160a01b03167fc3d58168c5ae7397731d063d5bbf3d657854427343f4c083240f7aacaa2d0f628a8a604051611406929190612637565b60405180910390a461141c848a8a8a8a8a6115a2565b505050505050505050565b6001600160a01b0384163b156110005760405163bc197c8160e01b81526001600160a01b0385169063bc197c819061146b9089908990889088908890600401612723565b6020604051808303816000875af19250505080156114a6575060408051601f3d908101601f191682019092526114a39181019061278e565b60015b611505576114b26127af565b806308c379a0036114eb57506114c66127ca565b806114d157506114ed565b8060405162461bcd60e51b815260040161047b91906117c2565b505b60405162461bcd60e51b815260040161047b906128a0565b6001600160e01b0319811663bc197c8160e01b146111635760405162461bcd60e51b815260040161047b906128f5565b60045460ff166106945760405162461bcd60e51b815260040161047b90612930565b60408051600180825281830190925260609160009190602080830190803683370190505090508281600081518110611591576115916121e3565b602090810291909101015292915050565b6001600160a01b0384163b156110005760405163f23a6e6160e01b81526001600160a01b0385169063f23a6e61906115e69089908990889088908890600401612940565b6020604051808303816000875af1925050508015611621575060408051601f3d908101601f1916820190925261161e9181019061278e565b60015b61162d576114b26127af565b6001600160e01b0319811663f23a6e6160e01b146111635760405162461bcd60e51b815260040161047b906128f5565b60006001600160a01b0382166104a7565b6116778161165d565b8114610cd157600080fd5b80356104a78161166e565b80611677565b80356104a78161168d565b600080604083850312156116b4576116b4600080fd5b60006116c08585611682565b92505060206116d185828601611693565b9150509250929050565b805b82525050565b602081016104a782846116db565b6001600160e01b03198116611677565b80356104a7816116f1565b60006020828403121561172157611721600080fd5b600061172d8484611701565b949350505050565b8015156116dd565b602081016104a78284611735565b60006020828403121561176057611760600080fd5b600061172d8484611693565b60005b8381101561178757818101518382015260200161176f565b50506000910152565b600061179a825190565b8084526020840193506117b181856020860161176c565b601f01601f19169290920192915050565b602080825281016117d38184611790565b9392505050565b634e487b7160e01b600052604160045260246000fd5b601f19601f83011681018181106001600160401b0382111715611815576118156117da565b6040525050565b600061182760405190565b905061183382826117f0565b919050565b60006001600160401b03821115611851576118516117da565b5060209081020190565b600061186e61186984611838565b61181c565b8381529050602080820190840283018581111561188d5761188d600080fd5b835b818110156118b157806118a28882611693565b8452506020928301920161188f565b5050509392505050565b600082601f8301126118cf576118cf600080fd5b813561172d84826020860161185b565b60006001600160401b038211156118f8576118f86117da565b601f19601f83011660200192915050565b82818337506000910152565b6000611923611869846118df565b90508281526020810184848401111561193e5761193e600080fd5b610809848285611909565b600082601f83011261195d5761195d600080fd5b813561172d848260208601611915565b600080600080600060a0868803121561198857611988600080fd5b60006119948888611682565b95505060206119a588828901611682565b94505060408601356001600160401b038111156119c4576119c4600080fd5b6119d0888289016118bb565b93505060608601356001600160401b038111156119ef576119ef600080fd5b6119fb888289016118bb565b92505060808601356001600160401b03811115611a1a57611a1a600080fd5b611a2688828901611949565b9150509295509295909350565b60008083601f840112611a4857611a48600080fd5b5081356001600160401b03811115611a6257611a62600080fd5b602083019150836001820283011115611a7d57611a7d600080fd5b9250929050565b60008060208385031215611a9a57611a9a600080fd5b82356001600160401b03811115611ab357611ab3600080fd5b611abf85828601611a33565b92509250509250929050565b6000611ad961186984611838565b83815290506020808201908402830185811115611af857611af8600080fd5b835b818110156118b15780611b0d8882611682565b84525060209283019201611afa565b600082601f830112611b3057611b30600080fd5b813561172d848260208601611acb565b60008060408385031215611b5657611b56600080fd5b82356001600160401b03811115611b6f57611b6f600080fd5b611b7b85828601611b1c565b92505060208301356001600160401b03811115611b9a57611b9a600080fd5b6116d1858286016118bb565b6000611bb283836116db565b505060200190565b6000611bc4825190565b80845260209384019383018060005b83811015611bf8578151611be78882611ba6565b975060208301925050600101611bd3565b509495945050505050565b602080825281016117d38184611bba565b60408101611c228285611735565b818103602083015261172d8184611790565b6116dd8161165d565b602081016104a78284611c34565b60028110610cd157600080fd5b80356104a781611c4b565b60008060408385031215611c7957611c79600080fd5b6000611c858585611693565b92505060206116d185828601611c58565b801515611677565b80356104a781611c96565b60008060408385031215611cbf57611cbf600080fd5b6000611ccb8585611682565b92505060206116d185828601611c9e565b634e487b7160e01b600052602160045260246000fd5b60038110610cd157610cd1611cdc565b8061183381611cf2565b60006104a782611d02565b6116dd81611d0c565b6101208101611d2f828c6116db565b611d3c602083018b611c34565b8181036040830152611d4e818a611790565b90508181036060830152611d628189611790565b9050611d7160808301886116db565b611d7e60a08301876116db565b611d8b60c08301866116db565b611d9860e08301856116db565b611da6610100830184611d17565b9a9950505050505050505050565b60008060408385031215611dca57611dca600080fd5b6000611dd68585611682565b92505060206116d185828601611682565b600080600080600060a08688031215611e0257611e02600080fd5b6000611e0e8888611682565b9550506020611e1f88828901611682565b9450506040611e3088828901611693565b93505060606119fb88828901611693565b600060208284031215611e5657611e56600080fd5b600061172d8484611682565b600080600060608486031215611e7a57611e7a600080fd5b83356001600160401b03811115611e9357611e93600080fd5b611e9f86828701611949565b93505060208401356001600160401b03811115611ebe57611ebe600080fd5b611eca86828701611949565b9250506040611edb86828701611693565b9150509250925092565b602a81526000602082017f455243313135353a2061646472657373207a65726f206973206e6f742061207681526930b634b21037bbb732b960b11b602082015291505b5060400190565b602080825281016104a781611ee5565b634e487b7160e01b600052602260045260246000fd5b600281046001821680611f6957607f821691505b602082108103611f7b57611f7b611f3f565b50919050565b602e81526000602082017f455243313135353a2063616c6c6572206973206e6f7420746f6b656e206f776e81526d195c881bdc88185c1c1c9bdd995960921b60208201529150611f28565b602080825281016104a781611f81565b80546104a781611f55565b60006104a7611ff38381565b90565b611fff83611fe7565b815460001960089490940293841b1916921b91909117905550565b6000610e67818484611ff6565b818110156107265761203a60008261201a565b600101612027565b601f821115610e67576000818152602090206020601f850104810160208510156120695750805b6105d66020601f860104830182612027565b818103612086575050565b61208f82611fdc565b6001600160401b038111156120a6576120a66117da565b6120b08254611f55565b6120bb828285612042565b6000601f8311600181146120f057600084156120d75750858201545b600019600886021c19811660028602175b865550611000565b600095865260208087208688529087209096601f19861691905b8281101561212a578885015482556001948501949091019060200161210a565b8683101561214957888501546000196008601f8a16021c1981165b8355505b600160028802018855505050505050505050565b634e487b7160e01b600052601160045260246000fd5b600060001982036121865761218661215d565b5060010190565b602981526000602082017f455243313135353a206163636f756e747320616e6420696473206c656e677468815268040dad2e6dac2e8c6d60bb1b60208201529150611f28565b602080825281016104a78161218d565b634e487b7160e01b600052603260045260246000fd5b6011815260006020820170139bc8185c1c1b1a58d85d1a5bdb881a59607a1b815291505b5060200190565b602080825281016104a7816121f9565b600c81526000602082016b416c726561647920566f746560a01b8152915061221d565b602080825281016104a781612234565b601081526000602082016f111958591b1a5b99481c995858da195960821b8152915061221d565b602080825281016104a781612267565b602281526000602082017f4170706c69636174696f6e206973206e6f7420696e20766f74696e6720737461815261746560f01b60208201529150611f28565b602080825281016104a78161229e565b60028110610cd157610cd1611cdc565b80611833816122ed565b60006104a7826122fd565b6116dd81612307565b6040810161232982856116db565b6117d36020830184612312565b808201808211156104a7576104a761215d565b602681526000602082017f4f776e61626c653a206e6577206f776e657220697320746865207a65726f206181526564647265737360d01b60208201529150611f28565b602080825281016104a781612349565b81516001600160401b038111156123b5576123b56117da565b6123bf8254611f55565b6123ca828285612042565b6020601f8311600181146123fa57600084156120d7575081860151600019600886021c19811660028602176120e8565b600085815260208120601f198616915b8281101561242a578885015182556020948501946001909201910161240a565b8683101561214957888501516000196008601f8a16021c198116612145565b6060808252810161245a8186611790565b905061246960208301856116db565b818103604083015261247b8184611790565b95945050505050565b602881526000602082017f455243313135353a2069647320616e6420616d6f756e7473206c656e677468208152670dad2e6dac2e8c6d60c31b60208201529150611f28565b602080825281016104a781612484565b602581526000602082017f455243313135353a207472616e7366657220746f20746865207a65726f206164815264647265737360d81b60208201529150611f28565b602080825281016104a7816124d9565b602a81526000602082017f455243313135353a20696e73756666696369656e742062616c616e636520666f81526939103a3930b739b332b960b11b60208201529150611f28565b602080825281016104a78161252b565b604080825281016125938185611bba565b9050818103602083015261172d8184611bba565b60208082527f4f776e61626c653a2063616c6c6572206973206e6f7420746865206f776e65729101908152600061221d565b602080825281016104a7816125a7565b602181526000602082017f455243313135353a206d696e7420746f20746865207a65726f206164647265738152607360f81b60208201529150611f28565b602080825281016104a7816125e9565b6040810161264582856116db565b6117d360208301846116db565b601f81526000602082017f5265656e7472616e637947756172643a207265656e7472616e742063616c6c008152915061221d565b602080825281016104a781612652565b601081526000602082016f14185d5cd8589b194e881c185d5cd95960821b8152915061221d565b602080825281016104a781612696565b602981526000602082017f455243313135353a2073657474696e6720617070726f76616c20737461747573815268103337b91039b2b63360b91b60208201529150611f28565b602080825281016104a7816126cd565b60a081016127318288611c34565b61273e6020830187611c34565b81810360408301526127508186611bba565b905081810360608301526127648185611bba565b905081810360808301526127788184611790565b979650505050505050565b80516104a7816116f1565b6000602082840312156127a3576127a3600080fd5b600061172d8484612783565b600060033d1115611ff35760046000803e5060005160e01c90565b600060443d10156127d85790565b60405160043d036004823e80513d60248201116001600160401b038211171561280057505090565b80820180516001600160401b0381111561281b575050505090565b80602083010160043d03850181111561283657505050505090565b612845826020018501866117f0565b5090949350505050565b603481526000602082017f455243313135353a207472616e7366657220746f206e6f6e2d455243313135358152732932b1b2b4bb32b91034b6b83632b6b2b73a32b960611b60208201529150611f28565b602080825281016104a78161284f565b602881526000602082017f455243313135353a204552433131353552656365697665722072656a656374658152676420746f6b656e7360c01b60208201529150611f28565b602080825281016104a7816128b0565b601481526000602082017314185d5cd8589b194e881b9bdd081c185d5cd95960621b8152915061221d565b602080825281016104a781612905565b60a0810161294e8288611c34565b61295b6020830187611c34565b61296860408301866116db565b61297560608301856116db565b8181036080830152612778818461179056fea2646970667358221220f0da224f18fa93ea768c941217b323b162fd7b98cb00453f2c9c8ee9f6e5c51664736f6c63430008120033",
  "devdoc": {
    "events": {
      "ApprovalForAll(address,address,bool)": {
        "details": "Emitted when `account` grants or revokes permission to `operator` to transfer their tokens, according to `approved`."
      },
      "Paused(address)": {
        "details": "Emitted when the pause is triggered by `account`."
      },
      "TransferBatch(address,address,address,uint256[],uint256[])": {
        "details": "Equivalent to multiple {TransferSingle} events, where `operator`, `from` and `to` are the same for all transfers."
      },
      "TransferSingle(address,address,address,uint256,uint256)": {
        "details": "Emitted when `value` tokens of token type `id` are transferred from `from` to `to` by `operator`."
      },
      "URI(string,uint256)": {
        "details": "Emitted when the URI for token type `id` changes to `value`, if it is a non-programmatic URI. If an {URI} event was emitted for `id`, the standard https://eips.ethereum.org/EIPS/eip-1155#metadata-extensions[guarantees] that `value` will equal the value returned by {IERC1155MetadataURI-uri}."
      },
      "Unpaused(address)": {
        "details": "Emitted when the pause is lifted by `account`."
      }
    },
    "kind": "dev",
    "methods": {
      "balanceOf(address,uint256)": {
        "details": "See {IERC1155-balanceOf}. Requirements: - `account` cannot be the zero address."
      },
      "balanceOfBatch(address[],uint256[])": {
        "details": "See {IERC1155-balanceOfBatch}. Requirements: - `accounts` and `ids` must have the same length."
      },
      "isApprovedForAll(address,address)": {
        "details": "See {IERC1155-isApprovedForAll}."
      },
      "owner()": {
        "details": "Returns the address of the current owner."
      },
      "paused()": {
        "details": "Returns true if the contract is paused, and false otherwise."
      },
      "renounceOwnership()": {
        "details": "Leaves the contract without owner. It will not be possible to call `onlyOwner` functions. Can only be called by the current owner. NOTE: Renouncing ownership will leave the contract without an owner, thereby disabling any functionality that is only available to the owner."
      },
      "safeBatchTransferFrom(address,address,uint256[],uint256[],bytes)": {
        "details": "See {IERC1155-safeBatchTransferFrom}."
      },
      "safeTransferFrom(address,address,uint256,uint256,bytes)": {
        "details": "See {IERC1155-safeTransferFrom}."
      },
      "setApprovalForAll(address,bool)": {
        "details": "See {IERC1155-setApprovalForAll}."
      },
      "supportsInterface(bytes4)": {
        "details": "See {IERC165-supportsInterface}."
      },
      "transferOwnership(address)": {
        "details": "Transfers ownership of the contract to a new account (`newOwner`). Can only be called by the current owner."
      },
      "uri(uint256)": {
        "details": "See {IERC1155MetadataURI-uri}. This implementation returns the same URI for *all* token types. It relies on the token type ID substitution mechanism https://eips.ethereum.org/EIPS/eip-1155#metadata[defined in the EIP]. Clients calling this function must replace the `\\{id\\}` substring with the actual token type ID."
      }
    },
    "version": 1
  },
  "userdoc": {
    "kind": "user",
    "methods": {},
    "version": 1
  },
  "storageLayout": {
    "storage": [
      {
        "astId": 369,
        "contract": "contracts/Gangabon.sol:Gangabon",
        "label": "_balances",
        "offset": 0,
        "slot": "0",
        "type": "t_mapping(t_uint256,t_mapping(t_address,t_uint256))"
      },
      {
        "astId": 375,
        "contract": "contracts/Gangabon.sol:Gangabon",
        "label": "_operatorApprovals",
        "offset": 0,
        "slot": "1",
        "type": "t_mapping(t_address,t_mapping(t_address,t_bool))"
      },
      {
        "astId": 377,
        "contract": "contracts/Gangabon.sol:Gangabon",
        "label": "_uri",
        "offset": 0,
        "slot": "2",
        "type": "t_string_storage"
      },
      {
        "astId": 289,
        "contract": "contracts/Gangabon.sol:Gangabon",
        "label": "_status",
        "offset": 0,
        "slot": "3",
        "type": "t_uint256"
      },
      {
        "astId": 188,
        "contract": "contracts/Gangabon.sol:Gangabon",
        "label": "_paused",
        "offset": 0,
        "slot": "4",
        "type": "t_bool"
      },
      {
        "astId": 65,
        "contract": "contracts/Gangabon.sol:Gangabon",
        "label": "_owner",
        "offset": 1,
        "slot": "4",
        "type": "t_address"
      },
      {
        "astId": 2183,
        "contract": "contracts/Gangabon.sol:Gangabon",
        "label": "addressVoted",
        "offset": 0,
        "slot": "5",
        "type": "t_mapping(t_address,t_mapping(t_uint256,t_bool))"
      },
      {
        "astId": 2185,
        "contract": "contracts/Gangabon.sol:Gangabon",
        "label": "deadlinePeriod",
        "offset": 0,
        "slot": "6",
        "type": "t_uint256"
      },
      {
        "astId": 2187,
        "contract": "contracts/Gangabon.sol:Gangabon",
        "label": "passAmountNeeded",
        "offset": 0,
        "slot": "7",
        "type": "t_uint256"
      },
      {
        "astId": 2192,
        "contract": "contracts/Gangabon.sol:Gangabon",
        "label": "applications",
        "offset": 0,
        "slot": "8",
        "type": "t_mapping(t_uint256,t_struct(Application)2170_storage)"
      },
      {
        "astId": 2196,
        "contract": "contracts/Gangabon.sol:Gangabon",
        "label": "tokenIdToCid",
        "offset": 0,
        "slot": "9",
        "type": "t_mapping(t_uint256,t_string_storage)"
      },
      {
        "astId": 2198,
        "contract": "contracts/Gangabon.sol:Gangabon",
        "label": "applicationId",
        "offset": 0,
        "slot": "10",
        "type": "t_uint256"
      },
      {
        "astId": 2200,
        "contract": "contracts/Gangabon.sol:Gangabon",
        "label": "isMintReady",
        "offset": 0,
        "slot": "11",
        "type": "t_bool"
      },
      {
        "astId": 2202,
        "contract": "contracts/Gangabon.sol:Gangabon",
        "label": "applicationIdMinting",
        "offset": 0,
        "slot": "12",
        "type": "t_uint256"
      },
      {
        "astId": 2204,
        "contract": "contracts/Gangabon.sol:Gangabon",
        "label": "tokenId",
        "offset": 0,
        "slot": "13",
        "type": "t_uint256"
      }
    ],
    "types": {
      "t_address": {
        "encoding": "inplace",
        "label": "address",
        "numberOfBytes": "20"
      },
      "t_bool": {
        "encoding": "inplace",
        "label": "bool",
        "numberOfBytes": "1"
      },
      "t_enum(State)2177": {
        "encoding": "inplace",
        "label": "enum Gangabon.State",
        "numberOfBytes": "1"
      },
      "t_mapping(t_address,t_bool)": {
        "encoding": "mapping",
        "key": "t_address",
        "label": "mapping(address => bool)",
        "numberOfBytes": "32",
        "value": "t_bool"
      },
      "t_mapping(t_address,t_mapping(t_address,t_bool))": {
        "encoding": "mapping",
        "key": "t_address",
        "label": "mapping(address => mapping(address => bool))",
        "numberOfBytes": "32",
        "value": "t_mapping(t_address,t_bool)"
      },
      "t_mapping(t_address,t_mapping(t_uint256,t_bool))": {
        "encoding": "mapping",
        "key": "t_address",
        "label": "mapping(address => mapping(uint256 => bool))",
        "numberOfBytes": "32",
        "value": "t_mapping(t_uint256,t_bool)"
      },
      "t_mapping(t_address,t_uint256)": {
        "encoding": "mapping",
        "key": "t_address",
        "label": "mapping(address => uint256)",
        "numberOfBytes": "32",
        "value": "t_uint256"
      },
      "t_mapping(t_uint256,t_bool)": {
        "encoding": "mapping",
        "key": "t_uint256",
        "label": "mapping(uint256 => bool)",
        "numberOfBytes": "32",
        "value": "t_bool"
      },
      "t_mapping(t_uint256,t_mapping(t_address,t_uint256))": {
        "encoding": "mapping",
        "key": "t_uint256",
        "label": "mapping(uint256 => mapping(address => uint256))",
        "numberOfBytes": "32",
        "value": "t_mapping(t_address,t_uint256)"
      },
      "t_mapping(t_uint256,t_string_storage)": {
        "encoding": "mapping",
        "key": "t_uint256",
        "label": "mapping(uint256 => string)",
        "numberOfBytes": "32",
        "value": "t_string_storage"
      },
      "t_mapping(t_uint256,t_struct(Application)2170_storage)": {
        "encoding": "mapping",
        "key": "t_uint256",
        "label": "mapping(uint256 => struct Gangabon.Application)",
        "numberOfBytes": "32",
        "value": "t_struct(Application)2170_storage"
      },
      "t_string_storage": {
        "encoding": "bytes",
        "label": "string",
        "numberOfBytes": "32"
      },
      "t_struct(Application)2170_storage": {
        "encoding": "inplace",
        "label": "struct Gangabon.Application",
        "members": [
          {
            "astId": 2152,
            "contract": "contracts/Gangabon.sol:Gangabon",
            "label": "id",
            "offset": 0,
            "slot": "0",
            "type": "t_uint256"
          },
          {
            "astId": 2154,
            "contract": "contracts/Gangabon.sol:Gangabon",
            "label": "owner",
            "offset": 0,
            "slot": "1",
            "type": "t_address"
          },
          {
            "astId": 2156,
            "contract": "contracts/Gangabon.sol:Gangabon",
            "label": "cid",
            "offset": 0,
            "slot": "2",
            "type": "t_string_storage"
          },
          {
            "astId": 2158,
            "contract": "contracts/Gangabon.sol:Gangabon",
            "label": "company",
            "offset": 0,
            "slot": "3",
            "type": "t_string_storage"
          },
          {
            "astId": 2160,
            "contract": "contracts/Gangabon.sol:Gangabon",
            "label": "deadline",
            "offset": 0,
            "slot": "4",
            "type": "t_uint256"
          },
          {
            "astId": 2162,
            "contract": "contracts/Gangabon.sol:Gangabon",
            "label": "totalVote",
            "offset": 0,
            "slot": "5",
            "type": "t_uint256"
          },
          {
            "astId": 2164,
            "contract": "contracts/Gangabon.sol:Gangabon",
            "label": "yay",
            "offset": 0,
            "slot": "6",
            "type": "t_uint256"
          },
          {
            "astId": 2166,
            "contract": "contracts/Gangabon.sol:Gangabon",
            "label": "nay",
            "offset": 0,
            "slot": "7",
            "type": "t_uint256"
          },
          {
            "astId": 2169,
            "contract": "contracts/Gangabon.sol:Gangabon",
            "label": "status",
            "offset": 0,
            "slot": "8",
            "type": "t_enum(State)2177"
          }
        ],
        "numberOfBytes": "288"
      },
      "t_uint256": {
        "encoding": "inplace",
        "label": "uint256",
        "numberOfBytes": "32"
      }
    }
  }
}